:100000000C946B000C9493000C9493000C9493004C
:100010000C9493000C9493000C9493000C94930014
:100020000C9493000C9493000C9493000C94930004
:100030000C9493000C9493000C9493000C949300F4
:100040000C943F060C9493000C940D060C94E70559
:100050000C9493000C9493000C9493000C949300D4
:100060000C9493000C9493000000000023002600E1
:10007000290000000000250028002B0000000008D7
:10008000000201000003040700000000000000005F
:1000900000000000240027002A00010204081020AC
:1000A000408001020408102001020408102004040A
:1000B0000404040404040202020202020303030310
:1000C00003030001020304051112131415160A0B91
:1000D0000C0D0E0FC60611241FBECFEFD8E0DEBFF9
:1000E000CDBF23E0A0E1B2E001C01D92A333B2076F
:1000F000E1F712E0A0E0B1E0ECE8F3E202C0059025
:100100000D92A031B107D9F710E0CBE6D0E004C0E2
:100110002197FE010E949211CA36D107C9F70E94A9
:1001200043070C94C4110C9400008230D9F048F4B9
:10013000882371F0813099F010923B0210923A02BC
:100140000895833091F08430B9F787E090E002C0E1
:1001500084E090E090933B0280933A02089582E01D
:1001600090E0F8CF81E090E0F5CF86E090E0F2CF2C
:10017000E091F102F091F2020280F381E02D3097DC
:1001800031F04091F002682F8DEE92E009940895CD
:10019000AF92BF92CF92DF92EF92FF920F931F9395
:1001A000CF93DF936C017B018B01040F151FEB01D3
:1001B0005E01AE18BF08C017D10759F06991D6018A
:1001C000ED91FC910190F081E02DC6010995892BFC
:1001D00079F7C501DF91CF911F910F91FF90EF90BB
:1001E000DF90CF90BF90AF900895FC01538D448D68
:1001F000252F30E0842F90E0821B930B541710F0D2
:10020000CF96089501970895FC01918D828D9817DE
:1002100061F0A28DAE0FBF2FB11D5D968C91928DB6
:100220009F5F9F73928F90E008958FEF9FEF0895E7
:10023000FC01918D828D981731F0828DE80FF11DB0
:10024000858D90E008958FEF9FEF0895FC01918DCB
:10025000228D892F90E0805C9F4F821B91098F73C4
:10026000992708958CE392E00E94260121E0892BD2
:1002700009F420E0822F089580E090E0892B29F096
:100280000E94320181110C9400000895FC01A48D9C
:10029000A80FB92FB11DA35ABF4F2C91848D90E0A8
:1002A00001968F739927848FA689B7892C93A0898B
:1002B000B1898C91837080648C93938D848D981315
:1002C00006C00288F389E02D80818F7D80830895A8
:1002D000EF92FF920F931F93CF93DF93EC0181E096
:1002E000888F9B8D8C8D98131AC0E889F98980813D
:1002F00085FF15C09FB7F894EE89FF896083E88970
:10030000F98980818370806480839FBF81E090E061
:10031000DF91CF911F910F91FF90EF900895F62EEE
:100320000B8D10E00F5F1F4F0F731127E02E8C8D88
:100330008E110CC00FB607FCFACFE889F9898081CD
:1003400085FFF5CFCE010E944601F1CFEB8DEC0F7A
:10035000FD2FF11DE35AFF4FF0829FB7F8940B8FEA
:10036000EA89FB8980818062CFCFCF93DF93EC0154
:10037000888D8823B9F0AA89BB89E889F9898C918D
:1003800085FD03C0808186FD0DC00FB607FCF7CF49
:100390008C9185FFF2CF808185FFEDCFCE010E9449
:1003A0004601E9CFDF91CF910895833081F028F4A1
:1003B000813099F08230A9F008958730A9F0883013
:1003C000C9F08430B1F4809180008F7D03C08091AA
:1003D00080008F7780938000089584B58F7784BDE7
:1003E000089584B58F7DFBCF8091B0008F77809387
:1003F000B00008958091B0008F7DF9CF1F93CF9307
:10040000DF93282F30E0F901E458FF4F8491F90180
:10041000E656FF4FD491F901E255FF4FC491CC232A
:10042000A9F0162F81110E94D501EC2FF0E0EE0FFC
:10043000FF1FEE58FF4FA591B4918FB7F894EC9140
:10044000111108C0D095DE23DC938FBFDF91CF91CF
:100450001F910895DE2BF8CFCF93DF9390E0FC013E
:10046000E656FF4F249182559F4FFC0184918823CB
:10047000D1F090E0880F991FFC01E057FF4FA59144
:10048000B491FC01EE58FF4FC591D491623071F4E4
:100490009FB7F8943C91822F809583238C93E881B9
:1004A0002E2B28839FBFDF91CF9108958FB7F894AB
:1004B000EC912E2B2C938FBFF6CFCF93C82F109299
:1004C000700061E083E00E942C0260E083E00E9403
:1004D000FE012C2F30E050E040E060E47FE180E05E
:1004E00090E00E94731181E08093B00089E08093D6
:1004F000B1002093B3008BEA289F212D112426956B
:100500002093B400CF9108951F93CF93DF93182FBA
:10051000EB0161E00E942C02209739F460E0812F0A
:10052000DF91CF911F910C94FE01CF3FD10511F4C3
:1005300061E0F5CFE12FF0E0E458FF4FE491E330C4
:1005400031F140F4E130B1F0E230E1F0C038D105F2
:100550007CF7E4CFE73029F1E83059F1E430B1F726
:1005600080918000806280938000D0938B00C09344
:100570008A0004C084B5806884BDC7BDDF91CF9177
:100580001F91089584B5806284BDC8BDF7CF809166
:100590008000806880938000D0938900C093880099
:1005A000EDCF8091B00080688093B000C093B3001D
:1005B000E5CF8091B00080628093B000C093B4001A
:1005C000DDCFCF93DF93D62FC42F682F70E085E067
:1005D0000E9484026D2F70E089E00E9484026C2FDB
:1005E00070E08AE0DF91CF910C948402019787300C
:1005F000910560F4FC01E150FD4F0C9492110B0346
:100600000D031003120316031A031D0340E060E0FC
:1006100080E00C94E1024FEFFACF40E06FEFF8CFAB
:1006200040E8FCCF40E060E08FEFF3CF40E860E0CF
:1006300080E8EFCF40E060E8FBCF40E8FCCF8230BD
:10064000910538F0880F991F880F991F059701971A
:10065000F1F70895CF93DF939CB59F7D9CBD9CB52A
:10066000937F9CBD9CB59C7F9CBD9DB591609DBDBD
:10067000CBE1D3E0682F8A810E94FE018C899D899D
:10068000DF91CF910C941F033FB7F894809115022E
:1006900090911602A0911702B091180226B5A89B5E
:1006A00005C02F3F19F00196A11DB11D3FBFBA2F04
:1006B000A92F982F8827BC01CD01620F711D811DC4
:1006C000911D42E0660F771F881F991F4A95D1F749
:1006D00008958F929F92AF92BF92CF92DF92EF9246
:1006E000FF926B017C010E9444034B015C01C11429
:1006F000D104E104F104B9F00E94440368197909B6
:100700008A099B09683E73408105910580F321E0C9
:10071000C21AD108E108F10888EE880E83E0981E1D
:10072000A11CB11CE4CFFF90EF90DF90CF90BF9061
:10073000AF909F908F900895CF93DF930097B1F083
:1007400081382EE3920770F068EE73E00E943D114D
:10075000EB010E941F03BE0190E080E0DF91CF918A
:100760000C946903DF91CF910C941F03DF91CF911B
:1007700008950F931F93CF93DF93EC018B01E0EB70
:10078000F0E080818F7D8083CB010E949C03888173
:100790009981AA81BB81800F911FA11DB11D888302
:1007A0009983AA83BB83DF91CF911F910F91089505
:1007B0000F931F93CF93DF93EC018B01E0EBF0E0FD
:1007C000808180628083CB010E949C038881998113
:1007D000AA81BB81800F911FA11DB11D88839983C0
:1007E000AA83BB83DF91CF911F910F9108952F9220
:1007F0003F924F925F926F927F928F929F92AF92B1
:10080000BF92CF92DF92EF92FF920F931F93CF93FD
:10081000DF93CDB7DEB728970FB6F894DEBF0FBED3
:10082000CDBF3C012983BD82AC829B828A828D8DA3
:100830009E8D9F838E832F8D98A1988729A03AA0A3
:100840004BA05CA0F301108211821282138280E21D
:1008500090E0F9818F1B91094A015B0104C0880C6B
:10086000991CAA1CBB1C8A95D2F7822F0E945D029C
:100870000115110521F0B801C3010E94D803E1144C
:10088000F10421F0B701C3010E94B903F12C3981B1
:10089000F316C9F0B7FE0FC0B601C3010E94D8031A
:1008A0006A817B81C3010E94B903880C991CAA1C30
:1008B000BB1CF394ECCF6C817D81C3010E94D803F3
:1008C0006E817F81EFCF8885882321F0B601C30137
:1008D0000E94D8036A817B812114310441045104B0
:1008E00031F0F30180819181B101681B790BC30163
:1008F00028960FB6F894DEBF0FBECDBFDF91CF9123
:100900001F910F91FF90EF90DF90CF90BF90AF902D
:100910009F908F907F906F905F904F903F902F901F
:100920000C94B9038EBD00000DB407FEFDCF8EB54B
:100930000895EF92FF920F931F93CF93DF93C82FE9
:100940007B01142F80E00E942A038C2F8F7180621C
:100950000E949204082FE701115020F089910E9413
:100960009204FACF81E00E942A03802FDF91CF9179
:100970001F910F91FF90EF900895CF93DF93C82FB1
:10098000D62F80E00E942A038C2F8F7180620E94F4
:100990009204C82F8D2F0E94920481E00E942A03A6
:1009A0008C2FDF91CF910895CF93DF93CBE1D3E0EC
:1009B0004E8560E671E08AE00E9499044E8560E60B
:1009C00071E080E10E9499046F8181E1DF91CF9114
:1009D0000C94BD04CF93C82F80E00E942A038C2F73
:1009E0000E9492048FEF0E949204C82F81E00E941F
:1009F0002A038C2FCF91089580E00E94EA0481FDA4
:100A00000BC0682F626080E00E94BD0465E070E06A
:100A100080E090E00C9469030895CF9380E00E94F9
:100A20002A0381EE0E949204C82F81E00E942A03CB
:100A30008C2FCF910895FC011782168215821482A3
:100A40000895CF93DF9370E0FB01E458FF4F84914A
:100A5000FB01E656FF4FD49162557F4FFB01C491D5
:100A6000CC23A1F081110E94D501EC2FF0E0EE0F14
:100A7000FF1FE859FF4FA591B491EC91ED2381E060
:100A800090E009F480E0DF91CF91089580E090E05C
:100A9000FACF0C9444032FB7F8946091110270912F
:100AA000120280911302909114022FBF0895CF92E9
:100AB000DF92EF92FF920F931F93CF93DF93EC019E
:100AC0006A017B01022F10E0E881F981369780816D
:100AD00091818C0F9D1F64EF71E0F7FE1DC00E9495
:100AE000D803E881F9813697808191816CED75E0BA
:100AF0008C0F9D1F0E94B903CC0CDD1CEE1CFF1C4B
:100B00001F5F0113E1CFDF91CF911F910F91FF90F4
:100B1000EF90DF90CF9008950E94D803E881F9818B
:100B200036978081918164EF71E0E2CF009769F0A0
:100B3000FC0101900020E9F73197AF01481B590BE8
:100B4000BC018CE392E00C94C80090E080E0089532
:100B5000CF93DF93EFECF0E08491CBE1D3E04E85CF
:100B600066E671E00E949904E9ECF0E084916F81FF
:100B70000E94BD0482E00E94EA04E3ECF0E0E4910C
:100B800061E070E001C0660FEA95EAF7682B82E049
:100B9000DF91CF910C94BD046130C1F480911A02B1
:100BA000843081F410921A020E94D4040E94A80595
:100BB00080911A020E94950080913A0290913B0226
:100BC0000C94F6028F5F80931A02EECF08951F9265
:100BD0000F920FB60F9211242F933F934F935F9371
:100BE0006F937F938F939F93AF93BF93EF93FF93F5
:100BF0008CE392E00E944601FF91EF91BF91AF918B
:100C00009F918F917F916F915F914F913F912F9124
:100C10000F900FBE0F901F9018951F920F920FB656
:100C20000F9211242F938F939F93EF93FF93E09153
:100C30004C02F0914D028081E0915202F0915302FA
:100C400082FD1BC09081809155028F5F8F73209130
:100C50005602821741F0E0915502F0E0E45CFD4F4E
:100C6000958F80935502FF91EF919F918F912F91D6
:100C70000F900FBE0F901F9018958081F4CF1F9298
:100C80000F920FB60F9211242F933F938F939F9340
:100C9000AF93BF938091110290911202A091130221
:100CA000B09114023091100223E0230F2D3758F534
:100CB0000196A11DB11D2093100280931102909303
:100CC0001202A0931302B093140280911502909126
:100CD0001602A0911702B09118020196A11DB11D34
:100CE0008093150290931602A0931702B0931802F6
:100CF000BF91AF919F918F913F912F910F900FBE18
:100D00000F901F90189526E8230F0296A11DB11D84
:100D1000D2CF61E083E00E942C0260E083E00E9479
:100D2000FE01EBEFF2E081E0838F8EE191E09183B1
:100D3000808384E291E0928781878AE291E09487C0
:100D4000838780E391E09687858786E391E0908BA7
:100D500087878CE391E0928B818B82E491E0948B86
:100D6000838B88E491E0968B858B8EE491E0908F65
:100D7000878B84E591E0928F818F8AE591E0958F52
:100D8000848F80E691E0978F868F0895CF93DF93CD
:100D9000ECE3F2E01382128288EE93E0A0E0B0E090
:100DA00084839583A683B78388E891E091838083C9
:100DB00085EC90E09587848784EC90E09787868720
:100DC00080EC90E0918B808B81EC90E0938B828B18
:100DD00082EC90E0958B848B86EC90E0978B868BF1
:100DE000118E128E138E148EC9EDD2E08AE991E035
:100DF000998388831B821A821D821C821F821E8215
:100E000084E190E09987888788EC90E09B878A87C7
:100E100020E931E03D872C8728EE33E03F872E879D
:100E2000398B288B9B8B8A8BEBE1F3E087E090E09A
:100E30009183808388E090E093838283168280E2AE
:100E40008783108685E0868785E090E0A0E0B0E0AB
:100E5000848B958BA68BB78B11868BEF92E00E94CB
:100E60008906EDEEF2E0D583C48381E180831182AF
:100E70008FE78383178216821186108681E0828332
:100E8000DF91CF910895CF93DF93CDB7DEB7A397CE
:100E90000FB6F894DEBF0FBECDBF789484B58260E4
:100EA00084BD84B5816084BD85B5826085BD85B50E
:100EB000816085BD80916E00816080936E0010928C
:100EC0008100809181008260809381008091810007
:100ED0008160809381008091800081608093800098
:100EE0008091B10084608093B1008091B0008160F6
:100EF0008093B00080917A00846080937A00809122
:100F00007A00826080937A0080917A008160809379
:100F10007A0080917A00806880937A001092C100F4
:100F200061E086E00E942C0261E080E10E942C02D8
:100F300061E084E00E942C0261E08FE00E942C02BC
:100F400061E082E00E942C0280911B0390911C03BF
:100F500020911D0330911E038217930719F061E061
:100F60000E942C0280911D0390911E0320911B036F
:100F700030911C032817390719F061E00E942C02F8
:100F80001FB7F89480911902811127C0E8EBF0E0B7
:100F90008491E4EAF0E09491E82FF0E0EE0FFF1F77
:100FA000E057FF4FA591B491EC91E92321F461E062
:100FB0008AE00E94FE0161E08AE00E942C028CB56A
:100FC00080618CBD8CB580648CBD61E08DE00E9439
:100FD0002C0261E08BE00E942C02809119028F5F4D
:100FE000809319021FBF80911B0390911C032091D5
:100FF0001D0330911E038217930719F060E00E94D1
:10100000FE0181E00E942A0365E070E080E090E04C
:101010000E9469036CE080E00E94BD046FE584E0FB
:101020000E94BD0486E00E94EA04877D182F1062AA
:101030008BE990E0A0E0B0E080932B0390932C0329
:10104000A0932D03B0932E03612F86E00E94BD0470
:1010500086E00E94EA04181303C081E08093210314
:1010600086E00E94EA0486E00E94EA0445E550E03A
:1010700060E070E040932B0350932C0360932D03AA
:1010800070932E03682F677D86E00E94BD0486E082
:101090000E94EA0480E00E942A0380E50E949204F4
:1010A00083E70E94920481E00E942A0360E08DE1C0
:1010B0000E94BD0460E08CE10E94BD0410922303F5
:1010C00060E787E00E94BD046CE485E00E94BD04F7
:1010D00080E00E942A0382EE0E94920481E00E9436
:1010E0002A030E940D050E94FC0480E00E94EA048D
:1010F000682F6E7F80E00E94BD040E94D4040E948D
:10110000A80561E085E00E94BD0464E170E080E034
:1011100090E00E9469030E94FC0480E00E94EA04BF
:10112000682F616080E00E94BD0460E787E00E9454
:10113000BD0480911B0390911C0320911D033091ED
:101140001E038217930719F061E00E94FE0180914F
:101150002403882309F48BC04091290364E273E0DF
:101160008AE00E9499048DE10E94EA0481FD0E94B8
:101170000D0561E085E00E942C0261E089E00E949B
:101180002C0261E08AE00E942C0262E081E10E9470
:101190002C0280911A020E94950080913A0290914F
:1011A0003B020E94F602E091F102F091F2028CEC17
:1011B00095E093838283E0914C02F0914D0282E0AE
:1011C0008083E0914802F09149021082E0914A0246
:1011D000F0914B028FEC808310925402E091500208
:1011E000F091510286E08083E0914E02F0914F022F
:1011F000808180618083E0914E02F0914F02808176
:1012000088608083E0914E02F0914F028081806877
:101210008083E0914E02F0914F0280818F7D808328
:1012200082EA91E00E94960587E10E94EA0480FD2F
:10123000F4C0109122030FE11F3108F4012F8091B7
:101240002303101B811110E080E00E942A0381E635
:101250000E9492049BE1E92E92E0F92E0150D0F019
:101260008FEF0E949204D7018D937D01F7CF82E02A
:101270000E94EA04E2ECF0E0E49121E030E001C0F9
:10128000220FEA95EAF72095622F682382E00E94F8
:10129000BD0469CF115020F08FEF0E949204FACF65
:1012A00081E00E942A0360E787E00E94BD0484EB8E
:1012B00091E00E94960590911D0280911A02981368
:1012C000ACC087EC91E00E9496058EE1C82E82E0CA
:1012D000D82E10E000E080911C0280171106C1F1A9
:1012E000BCF185ED91E00E949605602F8CE392E0C1
:1012F0000E9468018FED91E00E949605F601219110
:101300006F0130E050E040E019A27E01F1E2EF0E03
:10131000F11CCA01B9012AE030E040E050E00E942F
:101320005111605DD7016E937D0121153105410595
:10133000510579F7CD010E94960542E050E063EE39
:1013400071E08CE392E00E94C8000F5F1F4FC3CF93
:1013500080911B02813071F040F0823071F0833057
:1013600009F48FC186E092E002C086EE91E00E940F
:10137000960553C082EF91E0FACF8AEF91E00E9488
:10138000960570E060E086E00E94840260911E0293
:1013900070E086E00E94840280911F0260E0882352
:1013A00021F0813009F05CC161E082E00E94FE0121
:1013B00060E08FE00E94FE018091200260E08823BF
:1013C00021F0813009F054C161E084E00E94FE0107
:1013D00060E080E10E94FE016AE070E080E090E061
:1013E0000E94690370E060E086E00E94840260E091
:1013F00082E00E94FE0160E08FE00E94FE0160E05A
:1014000084E00E94FE0160E080E10E94FE018FE125
:10141000EBE1F2E011928A95E9F78091F102909167
:10142000F202DC01ED91FC910280F381E02D09953F
:101430002B018091F1029091F202DC01ED91FC917F
:101440000190F081E02D09956B018091F10290915E
:10145000F202DC01ED91FC910480F581E02D6091B8
:10146000ED020995182F8091EF02E091F102F091C1
:10147000F20281FF3EC62091F3023091F402A601F0
:10148000421B530B208531854217530708F43DC694
:101490008D7F8093EF028091F0028F3709F4EAC6C6
:1014A0008681978183709927892B89F18091EF023A
:1014B00087FF15C08091F5029091F6029601281BD6
:1014C000390BC901248535858217930740F082E0E6
:1014D0000E94B8008091EF028F778093EF02809195
:1014E000EF0283FF14C0E091F102F091F20220912B
:1014F000F5023091F602A601421B530B9A01448576
:1015000055852417350718F0877F8093EF02E09107
:10151000F102F091F202868182FF1CC08091EF02FD
:10152000982F91701917B1F082FF14C085FD12C079
:101530002091F7023091F802A601421B530B268539
:1015400037854217530730F080628093EF0284E0C2
:101550000E94B800E091F102F091F202868183FFCF
:101560001DC08091EF02982F91701917B9F082FF7A
:1015700015C086FF24C68091F9029091FA02960167
:10158000281B390B828993892817390738F085E0A1
:101590000E94B800D092FA02C092F9028091F00243
:1015A000181709F4B2C51093F0028091EF02982F3A
:1015B0009170191751F0D092F802C092F70284602E
:1015C0008093EF0280E00E94B8008091EF02982F94
:1015D000917019139AC5E091F102F091F2022681FF
:1015E0003781A90143705527452B29F082FDF8C5A5
:1015F000877F8093EF022091EF0225FF07C0E091E3
:10160000F102F091F202868186FD32C626FF07C004
:10161000E091F102F091F202868187FD29C623FF55
:1016200007C0E091F102F091F202868184FD20C6AC
:1016300080E024FF0CC0E091F102F091F20286817B
:10164000978135E0969587953A95E1F781702B78EB
:101650002093EF02811159C581E00E94B80055C561
:10166000823009F0A9CE60E00E94FE0161E0A1CEC7
:10167000823009F0B1CE60E084E00E94FE0161E0BA
:10168000A8CE81E092E00E94960560911F027091C1
:10169000200280912102909122020E9498111B0148
:1016A0002C01E0911E02E150EC3008F0D5C0F0E0D2
:1016B000E05AF44F8091FB029091FC020C9492113D
:1016C0006C0BE90B330C980C3F0D6C0DAA0D330E0F
:1016D000AD0E270F990F42100897DC018D919C9158
:1016E000FC01E550FD4F3F01FFEF2F163F064F066F
:1016F0005F06D1F586E20E945D02D301ED91FC9177
:1017000036978081918160E473E2860D971D0E9477
:10171000D803D301ED91FC9136978081918160EDE2
:1017200078E0860D971D0E94B903D301ED91FC91DD
:1017300036978081918164E372E0860D971D0E9447
:10174000D803D301ED91FC913697808191816CE3B0
:1017500072E0860D971D0E94B90361E670E080E09B
:1017600090E00E94690378C0D301ED91FC91369717
:101770000190F081E02D1F9291E09F9385EA8F9375
:1017800080EE8F939F9386E28F9382E08F9384E322
:101790008F93ACE98A2EA6E09A2EB4E3AB2EB2E08A
:1017A000BB2E14E3C12E12E0D12E00EAE02E01E19F
:1017B000F02E00E413E220E2B201A101C3018E0F7A
:1017C0009F1F0E94F7030FB6F894DEBF0FBECDBF78
:1017D00043C00A97DC018D919C91FC01E550FD4FBF
:1017E000FBA3EAA363E0762E7FEA672EAAA1BBA142
:1017F000ED91FC913697808191811F921F926F929B
:10180000B8ECBF931F92E8E2EF93F2E0FF9328E574
:101810002F9328E5822E22E0922E38E5A32E32E087
:10182000B32E40EBC42E44E0D42E58E5E52E52E012
:10183000F52E00E619E020E0B201A101AAA1BBA1AA
:101840008A0F9B1F0E94F7037A940FB6F894DEBFAD
:101850000FBECDBF7110CACF8FE1ABE1B2E01D92D8
:101860008A95E9F7DACD0C97DC010D911C910550B2
:101870001D4F84E20E945D025201410183E1880C08
:10188000991CAA1CBB1C8A95D1F7D801ED91FC913B
:10189000369780819181800F911FFC011082118207
:1018A0001282138269E773E00E94D8039DE0F92E4B
:1018B000D801ED91FC91369780819181800F911F25
:1018C00069E773E0B7FE25C00E94B903D801ED9126
:1018D000FC9136978081918169E773E0800F911FB9
:1018E0000E94D803880C991CAA1CBB1CFA94F11006
:1018F000DFCFD801ED91FC91369780819181800FE7
:10190000911FFC012081318160E57DEB621B730B2F
:1019100021C20E94D803D801ED91FC9136978081B5
:10192000918169E773E0800F911F0E94B903DACFBC
:101930000E97DC018D919C91FC01E550FD4F3F011C
:1019400084E20E945D029101A20160E070E080E00B
:1019500090E000E30E949F1179011A012B01B82E3B
:10196000C92ED301ED91FC91369780819181860D2E
:10197000971DFC0110821182128213826AE67AE0BE
:101980000E94D803D301ED91FC913697808191811B
:1019900069E773E0860D971D0E94B903D301ED91AD
:1019A000FC913697808191816CEB71E0860D971DDB
:1019B0000E94D803D301ED91FC91369780819181EB
:1019C0006CEB71E0860D971D0E94B903D12C0CEBD6
:1019D00011E005C0B3E0DB12FACF08E713E0D30152
:1019E000ED91FC9136970190F081E02DE60DF71D09
:1019F0009701A101B2018B2D9C2DA0E00E94B8118E
:101A000074F5B801CF010E94D803D301ED91FC9188
:101A1000369780819181B801860D971D0E94B90388
:101A20009701A101B2018B2D9C2D01E00E949F1115
:101A300079011A012B01B82EC92ED394B0E1DB1223
:101A4000C9CFD301ED91FC91369780819181860DAC
:101A5000971DFC012081318168EF71EA57CFB801F1
:101A6000CF010E94B903D301ED91FC91369780819B
:101A70009181B801860D971D0E94D803D1CF409760
:101A8000DC01ED91FC91E550FD4FA081B1811697ED
:101A90008D919C911F921F921F921F9221E02F9374
:101AA00029E32F9323E02F9321E42F9353EC852EEA
:101AB00059E0952E61E4A62E63E0B62E71E4C72EA0
:101AC00073E0D72EA4E0EA2EADE0FA2E04E01DE08C
:101AD00026E1B201A10173CE4297DC018D919C9168
:101AE000FC01E550FD4F3F010190F081E02D36975C
:101AF000808191811F921F921F921F9221E02F934C
:101B000026E22F9322E02F932DE02F9327E2822EBF
:101B100026E0922E3DE0A32E32E0B32E4DE0C42EFF
:101B200042E0D42EF12CE12C10E000E020E1B201E3
:101B3000A101860D971D0E94F703D301ED91FC9141
:101B400036978081918169E47CE5860D971D0E941E
:101B5000B90339CE4497DC018D919C91FC01E5508D
:101B6000FD4F3F01FFEF2F163F064F065F0609F0BE
:101B700050C086E20E945D02D301ED91FC91369740
:101B80008081918160EA71E1860D971D0E94D803E2
:101B9000D301ED91FC9136978081918160EA71E1EA
:101BA000860D971D0E94B903D301ED91FC913697E4
:101BB0008081918164E372E0860D971D0E94D803B5
:101BC000D301ED91FC9136978081918164E372E0BD
:101BD000860D971D0E94B903D301ED91FC913697B4
:101BE0008081918164E372E0860D971D0E94D80385
:101BF000D301ED91FC913697808191816CE971E080
:101C0000860D971D0E94B90362E670E080E090E0C7
:101C1000A8CDD301ED91FC913697808191811F92DF
:101C20001F921F921F9221E02F9326E22F9322E012
:101C30002F9324E32F93ACE98A2EA6E09A2EB4E3E7
:101C4000AB2EB2E0BB2E14E3C12E12E0D12E00EA7F
:101C5000E02E01E1F02E00EA11E120E2B201A10143
:101C6000860D971DAECD4697DC010D911C91055058
:101C70001D4F86E20E945D02D801ED91FC913697DE
:101C80008081918164E971E1800F911F0E94D803E6
:101C9000D801ED91FC9136978081918164E971E1E1
:101CA000800F911F0E94B90320E140E050E0BA018B
:101CB000C8010E945705D801ED91FC9136978081AB
:101CC000918164EF71E0800F911F0E94D803D801C9
:101CD000ED91FC9136978081918164E971E1800FEB
:101CE000911F0E94B903B201A101ECE0440F551FFE
:101CF000661F771FEA95D1F72CE0C8010E945705AF
:101D0000D801ED91FC9136978081918164E470E077
:101D1000800F911F0E94B903722D66275527442713
:101D200028E0C8010E945705D801ED91FC91369733
:101D30008081918164EF71E0800F911F0E94D80330
:101D4000D801ED91FC9136978081918168E776EE1C
:101D5000800F911F0E94B9037FCD4897FC018081BD
:101D600091819C0125503D4F39013FEF23163306E9
:101D700043065306C1F587E20E945D02D301ED914F
:101D8000FC9136978081918164E772E2860D971D00
:101D90000E94D803D301ED91FC9136978081918107
:101DA0006DE978E0860D971D0E94B903D301ED918E
:101DB000FC913697808191816AEE71E0860D971DC6
:101DC0000E94D803D301ED91FC91369780819181D7
:101DD0006CED70E0860D971D0E94B90367E570E019
:101DE00080E090E0BECCD301ED91FC9136978081EC
:101DF00091811F921F921F921F9221E02F9327E241
:101E00002F9328E02F932DE92F934AE3842E41E16D
:101E1000942E5AEEA52EBB24B3946AEEC62EDD2472
:101E2000D3947AE3E72E71E1F72E04E712E220E182
:101E3000B201A101860D971D0E94F703D301ED9118
:101E4000FC9136978081918162ED76E47ECE4A974F
:101E5000DC010D911C9105501D4F86E20E945D0230
:101E6000D801ED91FC9136978081918168EB7BE000
:101E7000800F911F0E94D803D801ED91FC913697F5
:101E80008081918160EB74E0800F911F0E94B90303
:101E900038E0F32ED801ED91FC9136978081918145
:101EA000800F911F60EB74E037FC02C068E572E0C0
:101EB0000E94D803D801ED91FC91369780819181E1
:101EC000800F911FB201A101440F551F661F771F9C
:101ED00057FF2CC060EB74E00E94B903B2E0220C03
:101EE000331C441C551CBA95D1F7FA94F110D2CF8B
:101EF000D801ED91FC9136978081918168E572E07F
:101F0000800F911F0E94D803D801ED91FC91119789
:101F1000369780819181800F911F12962C9160E3FA
:101F200075E7211117CF68E273E214CF68E572E01C
:101F3000D3CF4C97FC010081118105501D4FD80172
:101F4000ED91FC9136970190F081E02DE00FF11FAB
:101F5000108211821282138252014101F4E1880C35
:101F6000991CAA1CBB1CFA95D1F784E20E945D0261
:101F7000D801ED91FC9136978081918161EA71E001
:101F8000800F911F0E94D803D801ED91FC913697E4
:101F90008081918166E171E0800F911F0E94B903F9
:101FA000A6E0FA2ED801ED91FC91369780819181BF
:101FB00067EA70E0800F911F0E94D803B501A40169
:101FC000442755276627707CF8018081918141154F
:101FD00051056105F0E47F0709F446C040F5452B43
:101FE000462B472BB1F1E2E0880C991CAA1CBB1CC4
:101FF000EA95D1F7FA94F110D5CFD801ED91FC9183
:1020000036978081918167EA70E0800F911F0E946E
:10201000D803D801ED91FC91369780819181800F92
:10202000911FFC012081318162E87CE66FCC411573
:102030005105610530E87307F1F04115510561055F
:10204000704C89F60697DC018D919C916AE073E0F3
:1020500006C00697FC018081918166E171E0800FE6
:10206000911F0E94B903BFCF0697DC018D919C910F
:102070006CEB71E0F4CF0697FC018081918163E6FF
:1020800072E0EDCF4E97DC01ED91FC91E550FD4FF4
:10209000A081B18116978D919C911F921F921F92E2
:1020A0001F9221E02F9326E22F9322E02F932AE81C
:1020B0002F934EE9842E47E0942E5AE8A52E52E045
:1020C000B52E6AE8C62E62E0D62E7CE1E72E7CE0D3
:1020D000F72E0CE11CE02FE0B201A1018E0F9F1F33
:1020E0000E94F7036AE070E080E090E00E946903DC
:1020F0006ACB9091F002191709F4CDC982608093E0
:10210000EF02D092F402C092F3028091F10290911A
:10211000F202DC0114960D911C9115970115110521
:10212000D9F1ED91FC910280F381E02D09956419BC
:102130007509F80182859385019693878287848546
:10214000958501969587848786819781A085B1853D
:10215000860F971FA11DB11D86839783A087B18726
:10216000828193816817790710F473836283D801A1
:1021700014968D919C9115978617970720F41596C4
:102180007C936E931497F80180819181680F791F79
:1021900076956795718360836AE070E080E090E0F7
:1021A0000E94690320E030E0232B09F43DC80E941F
:1021B0003201882309F438C80E94000035C82091F4
:1021C000F7023091F802A601421B530B2089318996
:1021D0004217530708F4E2C980648093EF02D7C91D
:1021E0004091F7025091F802B601641B750B4285CD
:1021F00053856417750708F0FBC921FF05C083FDEF
:1022000019C08F7E8093EF028091EF0284FDF0C9A8
:10221000D092F602C092F502982F98609093EF0248
:10222000E091F102F091F2022681378130FF1CC06B
:102230008868DFC92091F5023091F602A601421BA1
:10224000530B2485358542175307D8F687FF03C003
:102250008F778093EF028091EF0280618093EF028D
:1022600083E00E94B800D0CF82E00E94B800C3C9CA
:1022700081E0EDC91093F00248CFAA1BBB1B51E1CE
:1022800007C0AA1FBB1FA617B70710F0A61BB70BE6
:10229000881F991F5A95A9F780959095BC01CD018B
:1022A0000895A1E21A2EAA1BBB1BFD010DC0AA1F97
:1022B000BB1FEE1FFF1FA217B307E407F50720F0AF
:1022C000A21BB30BE40BF50B661F771F881F991F2A
:1022D0001A9469F760957095809590959B01AC0173
:1022E000BD01CF010895052E97FB1EF400940E94B6
:1022F0008A1157FD07D00E94511107FC03D04EF4FC
:102300000C948A1150954095309521953F4F4F4F31
:102310005F4F089590958095709561957F4F8F4F91
:102320009F4F0895EE0FFF1F0590F491E02D099443
:102330006927962769277827872778270895002E09
:10234000083090F0982F872F762F652F542F432F2A
:10235000322F22270850F4CF220F331F441F551F5E
:10236000661F771F881F991F0A95B2F7002D0895E1
:102370000024A7FD00942A1730054005500560058C
:0C2380007005800590050895F894FFCFCB
:10238C001E001C00190017001500130011000F008F
:10239C000D000B0009000000020000000000F9FF16
:1023AC00F7FF0000F7FFF5FF0000F5FFF3FF00005B
:1023BC00F3FFF1FF0000F1FFEFFF0000EFFFEDFF77
:1023CC000000EDFFEBFF0000EBFFE9FF0000E9FF71
:1023DC00E7FF0000E6FFE4FF0000E4FFE2FF00007F
:1023EC00504E6F646500314E6F646500324E6F6401
:1023FC006500334E6F646500344E6F646500354E76
:10240C006F646500000000006801C800F500B501AC
:10241C00260104011801000000004B0549052105A7
:10242C001B050A46696E697368656420736574756B
:10243C00702E0A005265616420696E666F726D6160
:10244C0074696F6E2E0A002A2A2A2A2A2A2A2A2A14
:10245C002A2A2A2A000A7061796C6F61645B005D1C
:10246C003A20000D0A000A54454C454D455452592A
:10247C000A000A41444D494E0A004D4F544F520A2E
:10248C00000A49520A000A44454641554C540A0078
:107E0000112484B714BE81FFF0D085E080938100F7
:107E100082E08093C00088E18093C10086E0809377
:107E2000C20080E18093C4008EE0C9D0259A86E02C
:107E300020E33CEF91E0309385002093840096BBD3
:107E4000B09BFECF1D9AA8958150A9F7CC24DD24C4
:107E500088248394B5E0AB2EA1E19A2EF3E0BF2EE7
:107E6000A2D0813461F49FD0082FAFD0023811F036
:107E7000013811F484E001C083E08DD089C08234E0
:107E800011F484E103C0853419F485E0A6D080C0E4
:107E9000853579F488D0E82EFF2485D0082F10E0AE
:107EA000102F00270E291F29000F111F8ED06801E7
:107EB0006FC0863521F484E090D080E0DECF843638
:107EC00009F040C070D06FD0082F6DD080E0C81688
:107ED00080E7D80618F4F601B7BEE895C0E0D1E017
:107EE00062D089930C17E1F7F0E0CF16F0E7DF06D8
:107EF00018F0F601B7BEE89568D007B600FCFDCFD4
:107F0000A601A0E0B1E02C9130E011968C91119780
:107F100090E0982F8827822B932B1296FA010C0160
:107F200087BEE89511244E5F5F4FF1E0A038BF0790
:107F300051F7F601A7BEE89507B600FCFDCF97BE46
:107F4000E89526C08437B1F42ED02DD0F82E2BD052
:107F50003CD0F601EF2C8F010F5F1F4F84911BD097
:107F6000EA94F801C1F70894C11CD11CFA94CF0C13
:107F7000D11C0EC0853739F428D08EE10CD085E9AC
:107F80000AD08FE07ACF813511F488E018D01DD067
:107F900080E101D065CF982F8091C00085FFFCCF94
:107FA0009093C60008958091C00087FFFCCF809118
:107FB000C00084FD01C0A8958091C6000895E0E648
:107FC000F0E098E1908380830895EDDF803219F02E
:107FD00088E0F5DFFFCF84E1DECF1F93182FE3DFCA
:107FE0001150E9F7F2DF1F91089580E0E8DFEE27F6
:047FF000FF270994CA
:027FFE00040479
:0400000300007E007B
:00000001FF
